S01800006275696C642F6D6963617A2F6D61696E2E73726563E5
S11300000C9446010C9463010C9463010C946301F9
S11300100C9463010C9463010C9463010C942F11F0
S11300200C9463010C947F160C9463010C944002AD
S11300300C94C0150C9463010C9463010C941A077E
S11300400C9463010C9463010C94F1010C9463010E
S11300500C941B020C94E80B0C9463010C94630144
S11300600C9463010C9463010C9463010C9463017C
S11300700C9463010C9463010C9463010C9463016C
S11300800C9463010C9463010C946301000021102F
S1130090422063308440A550C660E77008812991EE
S11300A04AA16BB18CC1ADD1CEE1EFF13112100296
S11300B073325222B5529442F772D662399318833E
S11300C07BB35AA3BDD39CC3FFF3DEE36224433462
S11300D020040114E664C774A44485546AA54BB58E
S11300E028850995EEE5CFF5ACC58DD55336722636
S11300F011163006D776F6669556B4465BB77AA7DE
S113010019973887DFF7FEE79DD7BCC7C448E55881
S11301108668A7784008611802282338CCC9EDD92D
S11301208EE9AFF9488969990AA92BB9F55AD44AD5
S1130130B77A966A711A500A333A122AFDDBDCCB7D
S1130140BFFB9EEB799B588B3BBB1AABA66C877CA1
S1130150E44CC55C222C033C600C411CAEED8FFDCD
S1130160ECCDCDDD2AAD0BBD688D499D977EB66E75
S1130170D55EF44E133E322E511E700E9FFFBEEF1D
S1130180DDDFFCCF1BBF3AAF599F788F8891A981DF
S1130190CAB1EBA10CD12DC14EF16FE18010A100C9
S11301A0C230E3200450254046706760B9839893B9
S11301B0FBA3DAB33DC31CD37FE35EF3B102901219
S11301C0F322D2323542145277625672EAB5CBA585
S11301D0A89589856EF54FE52CD50DC5E234C32469
S11301E0A01481046674476424540544DBA7FAB759
S11301F09987B8975FE77EF71DC73CD7D326F236B9
S11302009106B01657667676154634564CD96DC9A4
S11302100EF92FE9C899E9898AB9ABA94458654808
S113022006782768C018E1088238A3287DCB5CDBF8
S11302303FEB1EFBF98BD89BBBAB9ABB754A545A58
S1130240376A167AF10AD01AB32A923A2EFD0FEDC4
S11302506CDD4DCDAABD8BADE89DC98D267C076CA8
S1130260645C454CA23C832CE01CC10C1FEF3EFF98
S11302705DCF7CDF9BAFBABFD98FF89F176E367EF8
S1130280554E745E932EB23ED10EF01E11241FBE45
S1130290CFEFD0E1DEBFCDBF16E0A0E0B1E0E4EEE9
S11302A0F7E400E00BBF02C007900D92AA34B10737
S11302B0D9F71DE0AAE4B6E001C01D92A233B1074C
S11302C0E1F70C948A020C940000AF92BF92CF9293
S11302D0DF92EF92FF920F931F93CF93DF9306EE7B
S11302E0A0901F0DB090200DC090210DD090220D34
S11302F0A114B104C104D104C9F110E062E17CE0AD
S1130300EE24FF2481E090E0A0E0B0E00E2C04C0D5
S1130310880F991FAA1FBB1F0A94D2F78A219B2119
S1130320AC21BD210097A105B10579F0202F332719
S113033044275527FB0185819681A781B0858217C3
S11303409307A407B5070CF405811F5F0894E11C0B
S1130350F11C675F7F4F1630A8F28FB7F894992786
S113036012B71D5F011728F4012F03C08FB7F8944B
S1130370992700938A0C01BF10925E0C8FBF0E94D4
S1130380ED06DF91CF911F910F91FF90EF90DF90D9
S1130390CF90BF90AF900895FC012091000130915F
S11303A0010180910B0C90910C0C019690930C0C14
S11303B080930B0C81A5813091F491858091020189
S11303C0981769F4868197814FEF8F3F940719F04E
S11303D08217930721F480E0815F8D32E8F3CF0127
S11303E008951F920F920FB60F9211242F933F93EB
S11303F04F935F936F937F938F939F93AF93BF9329
S1130400EF93FF935F9B06C08CB140E050E060E047
S11304100E94E70DFF91EF91BF91AF919F918F9152
S11304207F916F915F914F913F912F910F900FBEEC
S11304300F901F90189578941F920F920FB60F92F9
S113044011242F933F934F935F936F937F938F93D5
S11304509F93AF93BF93EF93FF930E944710FF9135
S1130460EF91BF91AF919F918F917F916F915F9128
S11304704F913F912F910F900FBE0F901F901895A1
S11304801F920F920FB60F9211242F933F934F9305
S11304905F936F937F938F939F93AF93BF93EF93E8
S11304A0FF938FB7F894992726B537B58FBFC90145
S11304B00E94EC15FF91EF91BF91AF919F918F91A5
S11304C07F916F915F914F913F912F910F900FBE4C
S11304D00F901F901895BC018FB7F894482F55279B
S11304E02091540CE22FFF27EE0FFF1FEF5DF54F15
S11304F080819181892B51F42F5F27702093540CB4
S1130500608371834FBF81E090E008954FBF80E026
S113051090E00895CFEFD0E1DEBFCDBFD29AD09A5C
S1130520D19AA79AA69AA59AA49AA39AA29AA19AAA
S1130530A09ABB98BA9AB99AD69AD59AB8981698A6
S11305408E988C98BF988E98D498DC98D39A8B9A6E
S11305508D9ADB9ADA9AD89AD99A83E08C5F873994
S1130560E8F390E08AE08093090A9093540C909306
S1130570580B81E29AE0FC019C01225F3F4F1192EB
S11305801192029628173907D4F70E948E0380919E
S11305900001909101018530910519F00A9761F0ED
S11305A017C06AE57BE085E794E00E94BD0368E834
S11305B078E08DE195E00AC06AE57BE08AE496E0A4
S11305C00E94BD0368E878E082EF96E00E94FC0395
S11305D08FB7F89499271092080A8FBF8FB7F894B1
S11305E099271092A40CD29AD09AD19ADA9AD89ACE
S11305F0D99A8FBF8FB7F8949927DA9A8FBF8FB79C
S1130600F8949927D89A8FBF8FB7F8949927D99AD5
S11306108FBF1092EC0C0E942F041092320A109299
S1130620330A0E9440040E9422058FB7F894992748
S11306301092630C8FBF8FB7F894992710929B0C7C
S11306401092530C1092660C1092650C8FBF61E0EF
S113065082E00E9466050E948E038FB7F894992762
S11306601092490C1092480C8FBF0E949E0561E0C5
S1130670862F0E9466050E948E038FB7F8949927EF
S113068010926B0C10926A0C8FBF0E949E050E9400
S11306902F041092320A1092330A0E9440040E94DE
S11306A022058FB7F89499271092630C8FBF0E948C
S11306B08E030E94CC050E9422050E940C0724E6AA
S11306C030E040E050E060E0862F0E947D060E940A
S11306D0CC050E9422050E940C0778948FB7F894E9
S11306E0482F55279091580BE92FFF27EE0FFF1F36
S11306F0EF5DF54F208131812115310529F478947E
S1130700889500000000EACF108211829F5F9770E5
S11307109093580B4FBFF9010995E0CF10921F0D2C
S11307201092200D1092210D1092220D10925E0C49
S11307308FEF8093280D8093BB0710921F0A83E0EC
S113074080935F0C96EE90938A0C8FB7F894282FC1
S1130750332787B78E7F87BF87B78D7F87BF80B7E3
S1130760886080BF8BE083BF12BE91BF87B7826071
S113077087BF2FBF81E090E00895CF92DF92EF9280
S1130780FF920F931F93CF93DF936C017B01C0E023
S1130790D0E08E0160E070E09801220F331F220F39
S11307A0331F40E050E0F901E40FF51FEE0FFF1F87
S11307B0DF01AE0DBF1DEC0DFD1D808191818D9378
S11307C09C934F5F5F4F4430510568F36F5F7F4FD9
S11307D02C5F3F4F6730710520F32196095F1F4F4F
S11307E0C330D105B8F2DF91CF911F910F91FF90E3
S11307F0EF90DF90CF900895EF92FF920F931F93A5
S1130800CF93DF937C018B0140E050E0BA0120E0FC
S113081030E0CB01880F991F880F991FEC01C00F9E
S1130820D11FFC01EE0DFF1D81919191A191B19118
S113083089939993A993B9932F5F3F4F273031053B
S113084098F34F5F5F4F695F7F4F43305105F8F274
S1130850DF91CF911F910F91FF90EF900895109227
S1130860E90C1092060CECE6FAE0CF0185519F4F9B
S11308701082BF968E179F07DCF781E090E0089501
S11308808FB7F894282F33271092A10C1092620C82
S11308901092070C1092590B8DEE9CE090935C0C17
S11308A080935B0C1092ED0C2FBF8FB7F894482FF8
S11308B05527209100013091010181E597E3289F9C
S11308C0B001299F700D389F700D1124CB018F5AF0
S11308D0984C90939A0C8093990C90932A0D809342
S11308E0290D85E89FE0289FB001299F700D389F4E
S11308F0700D1124CB018B57904F90930B0A80936A
S11309000A0A4FBF3093E70C2093E60C90E08FB7B0
S1130910F894282F332780915A07882321F481E003
S113092080935A07982F2FBF992319F480E090E001
S113093087C081E08093E20CBB98BA9AB99AD69AA0
S1130940D59AB89A16988E988C98BF988FB7F894C1
S11309509927B99ABB98BA9A709A6C9A6B986A98C4
S1130960699868986E9A8FBF0E948E038FB7F89427
S1130970282F332784E08093050C8FEF90E0909329
S11309802D0D80932C0D2FBF80E098EF90936D0C6C
S113099080936C0C82EE92E090936F0C80936E0CBB
S11309A080E095E09093710C8093700C80E890EE59
S11309B09093730C8093720C8FE097EA9093750C6C
S11309C08093740C8FEF90E69093770C8093760C61
S11309D085EE92E19093790C8093780C86E59AE009
S11309E090937B0C80937A0C85E691E490937D0C34
S11309F080937C0C84EC91E090937F0C80937E0C2C
S1130A001092810C1092800C1092830C1092820C24
S1130A108FE792E09093850C8093840C1092870C5E
S1130A201092860C8FB7F894282F332782E0809396
S1130A305A072FBF84E69AE10E946B0281E090E09E
S1130A40992708958FB7F894682F80E090E04EE5D9
S1130A5057E09C01F901E80FF91FE557F34F448370
S1130A60558312821382118201962B5F3F4F435D9F
S1130A705F4F8230910574F31092E50C10924D0C87
S1130A8010924C0C1092060A1092050A10925D07FF
S1130A9010925C071092BA071092B9071092E10CF9
S1130AA01092640C1092E80C1092170A1092160A15
S1130AB01092370A1092360A80918F0C9091900C04
S1130AC09093A30C8093A20C6FBF08951F93CF93B0
S1130AD0C82F162F8C3090F48A3081F08B3071F04F
S1130AE00E9483058FB7F8949927EC2FFF27EB52C8
S1130AF0F34F10838FBF81E090E002C080E090E06C
S1130B00CF911F9108958FB7F894282F8091110ADF
S1130B10882391F480E090E0E5EDFCE08193019678
S1130B208C309105DCF38EE18093DF0C8FE18093B0
S1130B30E00C81E08093110A2FBF08958FB7F894D9
S1130B40282F33271092040C1092030C1092560C89
S1130B501092550C1092310D1092300D1092110C10
S1130B601092100C8DE791E0A0E0B0E08093240D8A
S1130B709093250DA093260DB093270D2FBF0E94AF
S1130B8083058FB7F894282F33278EE086B917B8DA
S1130B902FBF81E090E008951F938FB7F8949927B1
S1130BA0A091A10C8FBFAA2309F086C08FB7F89437
S1130BB0282F332789E08093A10CA093DD08E091CE
S1130BC05B0CF0915C0CA0832FBF8FB7F89499272E
S1130BD0A0931D0D8FBF9A2F8FB7F894282F33271A
S1130BE080915A07823021F483E080935A0791E080
S1130BF02FBF992319F480E090E05CC08FB7F8947C
S1130C00992760912C0D70912D0D2091050C8FBFAB
S1130C10277028608FB7F894482F5527AFBD87B742
S1130C208F7E87BF87B78B7F87BF87B78F7D87BF4F
S1130C301DBC1CBC7BBD6ABD86B7806186BF2EBD52
S1130C404FBFDD9A88E592E000000000000000003C
S1130C500000000000000000019718161906A4F314
S1130C60DE9800000000DE9A0000000068E170E0F9
S1130C708DE10E94600611E08FB7F89499271093D4
S1130C800F0C8FBF80B39927F6E096958795FA9558
S1130C90E1F7817090708093380A21E030E040E001
S1130CA050E0612F85E00E947D06812F0E94FF069F
S1130CB081E090E0992702C080E090E01F910895C0
S1130CC0982F8FB7F894382F1092E20CC0989FB9E0
S1130CD0779BFECF2FB19F3040F0872F99278FB994
S1130CE0779BFECF6FB9779BFECF81E08093E20CB8
S1130CF03FBFC09A822F99270895EF92FF920F93D6
S1130D001F93CF93DF93962F79018A01863050F495
S1130D10623044F4662349F423E0E216F104010549
S1130D20110518F480E090E051C0682F7727FB018B
S1130D30B3E0EE0FFF1FBA95E1F7E60FF71FEE5E83
S1130D40F34FE182F2820383148390838FB7F89484
S1130D50C82FDD2782B7E80EF11C011D111DE582A5
S1130D60F6820783108721E030E040E050E004C0C1
S1130D70220F331F441F551F6A95D2F780911F0D10
S1130D809091200DA091210DB091220D822B932BD7
S1130D90A42BB52B80931F0D9093200DA093210DB0
S1130DA0B093220D80918A0C9927AA27BB27E816B5
S1130DB0F9060A071B0738F4E0928A0CE1BE109288
S1130DC05E0C0E94ED06CFBF81E090E0DF91CF91F1
S1130DD01F910F91FF90EF90089580914906181686
S1130DE02CF089EB99E10E946B0206C085B7837EE3
S1130DF085BF85B7806285BF80E090E00895982F15
S1130E008FB7F894282FC0989FB9779BFECF8FB1E6
S1130E102FBFC09A99270895109290008FE089B946
S1130E2082E08BB986E08093950088ED8AB981E0F1
S1130E3090E0089578941F920F920FB60F921124A8
S1130E402F933F934F935F936F937F938F939F93CE
S1130E50AF93BF93CF93DF93EF93FF938FB7F89440
S1130E60282F33278091200A882369F08091500C21
S1130E708093A00C88608093500C83BF8091310ACA
S1130E8081BF1092200A2FBF8FB7F894C82FDD2797
S1130E908091510C9091520C892B21F485EE98E1AC
S1130EA00E946B0221B78091510C9091520C820FD9
S1130EB0911D01969093520C8093510CCFBFFF91DA
S1130EC0EF91DF91CF91BF91AF919F918F917F91DE
S1130ED06F915F914F913F912F910F900FBE0F90A3
S1130EE01F901895982F8FB7F894482F1092E20C02
S1130EF0C09890649FB9779BFECF8FB11FB8779B42
S1130F00FECF8FB1282F33271FB8779BFECF322F08
S1130F1022278FB19927282B392BC09A81E08093FF
S1130F20E20C4FBFC9010895882319F08EB580647F
S1130F3002C08EB58F7B8EBD86B7806286BF089552
S1130F401F93CF93DF93682F41E050E011E0C82F47
S1130F50DD270C2E02C0440F551F0A94E2F720919E
S1130F60100C3091110CCA0182239323892B11F0A8
S1130F7010E010C0CA01822B932B9093110C809324
S1130F80100C232B39F4862F0E94D007D093040C25
S1130F90C093030C812F9927DF91CF911F9108955E
S1130FA0982F8FB7F894282F3327E5EDFCE0E90F4D
S1130FB0F11D80818F7187B92FBF379A369A81E0EE
S1130FC090E008950F931F93CF93C0E08FB7F894E8
S1130FD0482F8091A50C8111C1E020916A0C3091B9
S1130FE06B0C2115310539F48091480C9091490C12
S1130FF0892B09F4C1E0232B11F410925B07809133
S1131000480C9091490C892B19F481E080935B077B
S11310104FBFCC2309F0AFC020915B07222309F412
S11310204DC080910C0A90910D0A8230910589F18E
S11310308330910530F4009751F0019709F49BC077
S11310403DC08330910509F496C00497B9F581E059
S113105090E090930D0A80930C0A1D9A159A1E989D
S1131060169881E00E94BF088FB7F894992771E021
S11310707093A50C8FBF10925B072AE030E040E02C
S113108050E0672F872F0E947D06813009F473C0DA
S11310904FC08FB7F894992721E02093A50C8FBFF8
S11310A08FB7F894082F1127822F0E94A0070FBF33
S11310B0813009F055C0C0935B075DC0222309F05D
S11310C054C080910C0A90910D0A8230910581F0F0
S11310D08330910530F4009759F0019709F44BC01F
S11310E044C08330910509F446C0049731F13DC0F2
S11310F083E090E090930D0A80930C0A1D98159854
S11311001E9A169A81E00E94BF088FB7F894282F80
S1131110332781E08093A50C2FBF80935B072AE0DF
S113112030E040E050E0682F0E947D06813019F1E4
S113113010920D0A10920C0A13C08FB7F894282F3E
S1131140332781E08093A50C2FBF8FB7F894082F25
S1131150112782E00E94A0070FBF9927813049F030
S113116082EE97E00E946B0206C080E0222309F41D
S113117081E080935B07CF911F910F910895CF93E6
S1131180DF93863008F03EC041E050E060E070E05C
S113119004C0440F551F661F771F8A95D2F7C0916C
S11311A01F0DD091200DE091210DF091220DCE0163
S11311B0DF0184239523A623B7230097A105B10556
S11311C009F18FB7F894282F3327DB01CA018095E2
S11311D09095A095B0958C239D23AE23BF23809337
S11311E01F0D9093200DA093210DB093220D2FBFBE
S11311F00097A105B10519F481E080935E0C81E0AC
S113120090E002C080E090E0DF91CF910895EF92EA
S1131210FF920F931F93CF93DF93082FC0E0D0E08A
S11312209E01EEE3FAE08085801729F486A58130DB
S113123011F4EF0106C02F5F3F4FBF9626303105F2
S113124094F32097B9F58091E90C99272FE2E22EC7
S1131250F12C8E9DF0018F9DF00D9E9DF00D1124BB
S1131260E25CF54F16A5112329F56AE0812F0E944F
S113127062098823F9F02091E90C822F99278E9D29
S1131280F0018F9DF00D9E9DF00D1124E25CF54F51
S1131290008781E086A78FE2289FE0011124C25CC9
S11312A0D54F2F5F822F66E00E94C4239093E90CF0
S11312B01093320ACE01DF91CF911F910F91FF90CD
S11312C0EF900895282F90E08FB7F894382F662375
S11312D039F0E22FFF27EE5CF54F8081882331F44B
S11312E0E22FFF27EE5CF54F608391E03FBF892F2B
S11312F099270895982FEEE3FAE0DF01A551BF4F37
S113130080858917B1F486A5813099F44E3108F0AF
S11313104DE182E086A725A7408380910201818761
S1131320222311F4668377830E94A00981E090E070
S11313300895BF96AE17BF071CF780E090E00895AC
S1131340CF93DF938091060C9927CFE2D0E08C9F56
S1131350F0018D9FF00D9C9FF00D1124E25CF54F80
S113136086A58230C1F464E181E00E946209882389
S113137091F08091060C99278C9FF0018D9FF00DC0
S11313809C9FF00D1124E25CF54F83E086A78EEC60
S113139099E00E946B02DF91CF910895CF93DF9380
S11313A0CDB7DEB722970FB6F894DEBF0FBECDBF20
S11313B04091060C242F33278FE290E0289FF00100
S11313C0299FF00D389FF00D1124E25CF54F85A59F
S11313D0882309F07AC08FE2489FF0011124E25C6F
S11313E0F54F8FB7F89499272091A10C8FBF213026
S11313F009F066C088E082838091070C882319F085
S113140081E2818301C021838FEF9FEF84839583E1
S11314102681378181E089831A8240E050E0898106
S11314209A818130910509F4AC01452B19F4632F9D
S1131430722F01C0B901668377839081955F908391
S11314408091620C8F5F8093620C838313A614A631
S113145092509093B807F093980CE093970C88E01F
S11314608093DD080E94D90A8F70907001969C01C8
S113147043E0220F331F4A95E1F7280F391F280F45
S1131480391F10920E0A2115310529F462E070E02B
S113149080E090E005C0C901AA27BB27BC01CD01AB
S11314A00E94900A9927882359F08FB7F894282F1F
S11314B0332784E08093A10C2FBF81E090E002C029
S11314C080E090E0892B19F51EC08FE2489F9001BF
S11314D01124225C354F91E08FB7F89440912F0D81
S11314E042FD08C0446040932F0D3093BA07209307
S11314F0B90701C090E08FBF913019F40E94FC0A33
S1131500982F992321F48EEC99E00E946B02229685
S11315100FB6F894DEBF0FBECDBFDF91CF91089513
S1131520CF93DF93EC01DB018FB7F894282F332797
S1131530A093120AB093130AC093140AD093150A05
S113154081E080931D0D2FBFAF3FB105C105D105CB
S113155021F018F064E08FEF02C064E08A2F0E944B
S1131560B60A81E090E0DF91CF910895982F68301A
S113157018F080E090E0089568608FB7F894282F01
S1131580332715BC87B78F7787BF87B78F7B87BF14
S113159060930A0C90934B0C14BC93BD86B780687F
S11315A086BF87B7806887BF65BD2FBF81E090E0A5
S11315B008958FB7F894482F55272091990C3091AE
S11315C09A0C832F881F8827881F220F331F882394
S11315D021F08BE090E1282739272F5F3F4F30938C
S11315E09A0C2093990C80910A0A90910B0A28274F
S11315F039274FBFC9010895CF93C1E020E08FB7C9
S1131600F894382F8091E50C882391F580912F0D63
S1131610992781FF08C087E69CE090933D0A809358
S11316203C0A80E41AC082FF0FC0E091B907F09130
S1131630BA07F0933D0AE0933C0A82E48093BD0725
S1131640808199270A960DC083FF12C08BEE98E023
S113165090933D0A80933C0A8FEF8093BD0781E00D
S113166090E09093060A8093050A2C2FC093E50C12
S11316703FBF222309F18FB7F894282F3327109204
S11316805D0710925C0786E090E090934D0C809388
S11316904C0C2FBF8EE70E94600BC82F813061F085
S11316A08FB7F894282F332788E08093E50C2FBF59
S11316B089E79BE00E946B028C2F9927CF910895B4
S11316C0482F8FB7F894282F33279091630C81E02B
S11316D08093630C2FBF992319F080E090E0089564
S11316E08FB7F89499274CB95E9A8FBF81E090E048
S11316F008958FB7F894282F33278091E50C88300C
S113170011F41092E50C2FBF8091BD0790912F0D1D
S1131710803451F48FB7F894282F332782E0982728
S113172090932F0D2FBF24C08FB7F894282F332701
S113173084E0982790932F0D2FBF2091B907309103
S1131740BA079091060C8FE2989FC0011124825C25
S1131750954F2817390711F40E94BB0B10921E0DE8
S11317608FB7F89499271092BA071092B9078FBFD0
S11317700E94FC0A08954091060C242F33278FE21F
S113178090E0289FF001299FF00D389FF00D11245F
S1131790E25CF54F16A64F5F842F66E00E94C423D7
S11317A09093060C1092330A0E94A009089588E0D1
S11317B00E94070990931D0A80931C0A009739F030
S11317C00A969093580C8093570C81E090E008950A
S11317D01F920F920FB60F921124BF92CF92DF92F5
S11317E0EF92FF920F931F932F933F934F935F9327
S11317F06F937F938F939F93AF93BF93CF93DF9315
S1131800EF93FF93E4B1F5B1F370349A3798789479
S1131810EF01BFEFFB2EEE24A1E0DA2E8FB7F89490
S1131820B82E8091030C9091040C0A9759F4CF01BF
S1131830AA27BB278093240D9093250DA093260DF2
S1131840B093270DC090030C0C2D112761E070E0BC
S1131850002E02C0660F771F0A94E2F74091300D04
S11318605091310D462357234115510551F4809170
S1131870100C9091110C862797279093110C80934C
S1131880100C2091550C3091560CCB0182239323DC
S1131890892B49F0ED2C452B31F42627372730933B
S11318A0560C2093550C4091100C5091110C41157D
S11318B0510501F12091030C3091040C2F5F3F4F2F
S11318C02C30310511F0C90102C080E090E09C0188
S11318D081E090E0022E02C0880F991F0A94E2F77B
S11318E084239523892B51F33093040C2093030C08
S11318F0F090030C8AE0C816C9F0EE20B9F0CF01CD
S1131900AA27BB27EAE0880F991FAA1FBB1FEA95E5
S1131910D1F72091240D3091250D4091260D509141
S1131920270DBC01CD010E94D023E901BFBE8FEF7A
S1131930F81619F08F2D0E94D0078AE0C81609F412
S1131940A4C0EE2011F0DD24A0C00230110509F47A
S113195044C00330110524F40130110531F093C063
S11319600730110509F481C08EC08FB7F894E09256
S1131970A50C20916A0C30916B0C2230310518F0C3
S11319802230310521F010926B0C10926A0C8FBF3B
S113199082EE97E00E946B028FB7F894282F3327CA
S11319A0C0931E0A8D2F99278093020CD0930E0C9E
S11319B0C0930D0C2FBF8FB7F894282F33271092A4
S11319C06B0C10926A0C80912B0D82B980911B0ACA
S11319D083B92FBF84EC98E152C08FB7F894E0929A
S11319E0A50C2091480C3091490C2230310518F097
S11319F02230310521F01092490C1092480C8FBF0F
S1131A0082EE97E00E946B028FB7F894282F332759
S1131A10C0931E0A8D2F99278093020CD093610CDA
S1131A20C093600C2FBF8FB7F894282F33271092E0
S1131A30490C1092480C80912B0D82B980911B0A9D
S1131A4083B92FBF8FB7F894992701E010E0109362
S1131A506B0C00936A0C8FBF82EE97E00E946B02BE
S1131A6083EA98E10E946B020FC08FB7F89499271C
S1131A70D093E608C093E5088FBF8DE298E10E94F9
S1131A806B0201E001C000E0D02E8FB7F894682FFC
S1131A9041E050E002C0440F551FCA94E2F7209180
S1131AA0300D3091310DC90184239523892B41F0E8
S1131AB0DD2031F4242735273093310D2093300D68
S1131AC06FBFFF91EF91DF91CF91BF91AF919F9144
S1131AD08F917F916F915F914F913F912F911F91C2
S1131AE00F91FF90EF90DF90CF90BF900F900FBEBB
S1131AF00F901F901895CF92DF92EF92FF920F9361
S1131B001F93CF93DF93DC01EA01690120E030E009
S1131B104EE050E08091ED089091EE08019751F469
S1131B20EDEEF8E02F5F3F4FE40FF51F80819181C8
S1131B300197C1F38EE090E0289FF001299FF00DFA
S1131B40389FF00D1124E351F74F81E090E080833A
S1131B5091836283738364837583C683D783C086CA
S1131B60D18602871387E486F586F901C3E0EE0F78
S1131B70FF1FCA95E1F7E20FF31FE20FF31FE254D0
S1131B80F84F8D919C9111978083918312968D913A
S1131B909C9113978283938314968D919C911597AE
S1131BA08483958316968D919C911797868397834A
S1131BB018968D919C91199780879187DF91CF9189
S1131BC01F910F91FF90EF90DF90CF9008950F93A6
S1131BD01F93082F8091E10C99278230910509F415
S1131BE06BC0833091052CF4009759F0019781F173
S1131BF0B3C18330910509F49AC0049709F455C11F
S1131C00ABC10E3709F0AAC18091640C9927FC017D
S1131C10EE0FFF1FEE0FFF1FE80FF91FE80FF91F6C
S1131C20E557F34F82819381009709F097C11182A0
S1131C309093370A8093360A9093170A8093160A72
S1131C40848195819093A30C8093A20C81E081C13F
S1131C500E3709F483C18091640C9927FC01EE0FBF
S1131C60FF1FEE0FFF1FE80FF91FE80FF91FE557DD
S1131C70F34F00838091360A9091370AECE8F0E044
S1131C80202F2927220FF11DE20FF11DC895982F4F
S1131C90802D3196C89590259093370A8093360A03
S1131CA0802F99278134910529F08234910509F414
S1131CB04FC152C182E04DC10E3709F44DC180912C
S1131CC0640C0D3779F49927FC01EE0FFF1FEE0F1A
S1131CD0FF1FE80FF91FE80FF91FE557F34F80E2E4
S1131CE081833CC19927FC01EE0FFF1FEE0FFF1FFC
S1131CF0E80FF91FE80FF91FE557F34F218120275B
S1131D0021838091360A9091370AECE8F0E0292784
S1131D10220FF11DE20FF11DC895982F802D3196E9
S1131D20C89590259093370A8093360A11C1809103
S1131D30160A9091170A8932910508F0B8C00D3738
S1131D4011F484E006C10E3709F079C0029708F453
S1131D505AC08091160A81500E94B30FA091A20C20
S1131D60B091A30CFD01E80FF11D80819927182F74
S1131D7000278091160A9091170AA80FB91F12978D
S1131D808C910E94B30F9927082B192B1093370AB3
S1131D900093360A8091640C9927FC01EE0FFF1F13
S1131DA0EE0FFF1FE80FF91FE80FF91FE557F34F78
S1131DB08091160A9091170A02978283938383EF86
S1131DC099E10E946B028091640C8F5F8170809313
S1131DD0640C9927FC01EE0FFF1FEE0FFF1FE80FA5
S1131DE0F91FE80FF91FE557F34F82819381892B7F
S1131DF0D9F4848195819093A30C8093A20C81E003
S1131E008093E10C13C08091640C9927FC01EE0FC0
S1131E10FF1FEE0FFF1FE80FF91FE80FF91FE5572B
S1131E20F34F1282138211821092E10C1092370A3E
S1131E301092360A1092170A1092160A8FC08091D7
S1131E40160A0E94B30FE091A20CF091A30CE80FC4
S1131E50F11D00834091160A5091170A4230510532
S1131E60E8F02091360A3091370AE091A20CF09103
S1131E70A30CE40FF51F32978081ECE8F0E0832790
S1131E80880FF11DE80FF11DC895322F202D3196D2
S1131E90C89530253093370A2093360A4F5F5F4F39
S1131EA05093170A4093160A59C00E37D1F4109272
S1131EB0370A1092360A1092170A1092160A809165
S1131EC0640C9927FC01EE0FFF1FEE0FFF1FE80FB4
S1131ED0F91FE80FF91FE557F34F1282138211829D
S1131EE03BC080E208278091160A0E94B30FE0915C
S1131EF0A20CF091A30CE80FF11D00834091160A87
S1131F005091170A42305105E8F02091360A309179
S1131F10370AE091A20CF091A30CE40FF51F32975D
S1131F208081ECE8F0E08327880FF11DE80FF11DB4
S1131F30C895322F202D3196C89530253093370A15
S1131F402093360A4F5F5F4F5093170A4093160A47
S1131F5083E08093E10C02C01092E10C81E090E0F8
S1131F601F910F910895843010F48A5F06C0843065
S1131F7019F480E090E008958B5F99270895CF933A
S1131F80DF93EC0180910201898761E0CE010E9418
S1131F902010882309F450C088859927883091053A
S1131FA059F0893091050CF447C08A30910509F441
S1131FB043C08097C9F140C00E94D70B8823E1F148
S1131FC0DE011A96E091570CF091580C8A858083B3
S1131FD02091570C3091580C11968C911197F9015E
S1131FE081832091570C3091580C12968D919C91BD
S1131FF01397F9018283938314968C91F901848356
S1132000E091570CF091580C86E03596DE011F964E
S11320100D9001928A95E1F720E04BE06FEF7FEF9E
S113202088E00E947A0908C08FB7F8949927109223
S1132030660C1092650C8FBFCE01DF91CF9108958D
S1132040FC0140E021A5213031F491858091020109
S1132050981709F4422F662379F4268137818FEF8C
S11320602F3F380739F08091000190910101281722
S1132070390709F461E04623842F99270895FC0168
S1132080809102018187CF010E94CC0108958FB70E
S1132090F89499272091630C1092630C8FBF22232C
S11320A009F4C2C08091E50C873031F41092E50C3C
S11320B089E79BE00E946B0221E08091E50C99275F
S11320C08430910509F48CC08530910554F4823034
S11320D0910561F1833091050CF076C0019749F0C8
S11320E09AC08630910509F48FC006970CF481C01C
S11320F092C082E08093E50C20915C0730915D07EB
S11321008091BD07ECE8F0E08327880FF11DE80F0C
S1132110F11DC895322F202D3196C8953025309366
S11321205D0720935C078091BD0772C08091BD0755
S113213020915C0730915D074CE850E0E0913C0A47
S1132140F0913D0A60914C0C70914D0C803411F06B
S1132150E60FF71F6081762FFA017327770FF11DC1
S1132160E70FF11DC895922F802D3196C8959025C3
S113217090935D0780935C0780914C0C90914D0C7B
S1132180019690934D0C80934C0C0A9721F4109275
S11321904D0C10924C0C80914C0C90914D0C01976D
S11321A031F48AE090E090934D0C80934C0C209194
S11321B04C0C30914D0C8091050A9091060A281719
S11321C0390798F084E00FC080911C0D90E28927B4
S11321D00E94600B282F80919C0C8093E50C1BC0FF
S11321E060915C0785E08093E50C862F0E941711AF
S11321F011C080915C0790915D07292F332786E0F9
S11322008093E50C822FF2CF87E08093E50C8EE774
S11322100E94600B282F213039F088E08093E50C70
S113222089E79BE00E946B0281E090E00895982F7B
S11322308D57823078F48FB7F894282F3327809104
S1132240E50C80939C0C83E08093E50C90931C0D2B
S11322502FBF9DE7892F0E94600B992708951F9235
S11322600F920FB60F9211242F933F934F935F93C6
S11322706F937F938F939F93AF93BF93CF93EF937A
S1132280FF938091070C882369F18091A10C84301D
S113229049F580911D0D882329F18FB7F894282FD3
S11322A0332710921D0D87B78F7787BF2FBF0E94EA
S11322B0D90A9C012F7330702F5F3F4FC901C3E0CF
S11322C0880F991FCA95E1F7820F931F820F931FFE
S11322D0855B9F4FAA2797FDA095BA2FBC01CD011E
S11322E00E94900A80E090E0B79981E0892B19F46C
S11322F00E949D1110C08FB7F894C82F81E69AE10F
S11323000E946B02882321F089B78F7B89BF02C0AA
S11323100E949D11CFBFFF91EF91CF91BF91AF91DB
S11323209F918F917F916F915F914F913F912F91E9
S11323300F900FBE0F901F9018951F9389B78F7B36
S113234089BF8FE30E94720718E0812F0E94FF0665
S1132350812F0E94FF068FB7F89499271092590B8A
S11323608FBF8FB7F894282F33278AB780628ABF2C
S11323708AB78F7E8ABF89B7806489BF2FBF1F91B8
S113238008951F93CF9380E090E0B79981E0892B63
S113239011F40E9B8EC08FB7F894182FC091590B6F
S11323A0CC2349F081E69AE10E946B02882331F440
S11323B00E949D1103C081E08093590B1FBFCC2361
S11323C009F077C040915B0C50915C0C9C2F8FB747
S11323D0F894282F80915D0C882311F091E003C0BC
S11323E081E080935D0C2FBF992309F04DC08FB716
S11323F0F894282F9093180A5093870840938608DE
S1132400C0988FE78FB9779BFECF8FB11FB8779BAA
S1132410FECF8FB180932E0D882321F1E0918608A1
S1132420F0918708808380912E0D8F5F80932E0D0D
S11324308A3218F089E280932E0D91E080912E0D5E
S1132440981780F41FB8779BFECFE0918608F0912F
S11324508708E90FF11D8FB180839F5F80912E0D56
S1132460981780F381E08093180A2FBFC09A8EE6F4
S11324709AE10E946B02282F882349F48FB7F894BD
S1132480992720935D0C8FBF80E090E002C081E02B
S113249090E0282F3327222361F48FB7F8949927EB
S11324A02093590B8FBF81E69AE10E946B02882327
S11324B011F40E949D11CF911F9108958FB7F89444
S11324C0282F332791E09093A10CE091970CF09181
S11324D0980C80818B5080832FBF692FCF010E947D
S11324E0721208959C019091060C8FE2989FC0018E
S11324F01124825C954F2817390711F40E94BB0BF5
S113250081E090E008958FB7F894282F332781E075
S11325108093A10C2FBFE091970CF091980C8081CF
S11325208B5080838091970C9091980C60E00E946E
S113253072120895FC010190F081E02D2091A40C09
S1132540AF0142705070E0FF06C08FB7F89499272E
S1132550DA98216005C08FB7F8949927DA9A2E7F0C
S11325602093A40C8FBF2091A40CE470F070452B31
S113257031F08FB7F8949927D998226005C08FB7A6
S1132580F8949927D99A2D7F2093A40C8FBF20917A
S1132590A40CEF2B31F08FB7F8949927D8982460C6
S11325A005C08FB7F8949927D89A2B7F2093A40C51
S11325B08FBF82EA98E10E946B0281E090E0089567
S11325C0CF93DF93DC01EB01BA01A90120E030E0F5
S11325D088E390E0A89FF001A99FF00DB89FF00D4B
S11325E01124EE5DF44F808191812817390798F505
S11325F0FD0193E0EE0FFF1F9A95E1F7EA1BFB0B39
S1132600E20FF31F83E0EE0FFF1F8A95E1F7E65A0E
S1132610F44FF09780819181F0968C179D0749F4CF
S1132620BE97619371934193519381E090E08083CD
S113263091832F5F3F4F88E390E0A89FF001A99F0B
S1132640F00DB89FF00D1124EE5DF44F808191815F
S11326502817390768F2DF91CF91089560E0A1E06F
S113266070914306272F332788E390E0289FF001D9
S1132670299FF00D389FF00D1124EE5DF44F8081F9
S11326809181892B59F1472F5527FA0133E0EE0F39
S1132690FF1F3A95E1F7E41BF50BE60FF11D23E06C
S11326A0EE0FFF1F2A95E1F7E05DF44F80819181E1
S11326B0892B09F4A0E06F5F262F332788E390E08D
S11326C0489FF001499FF00D589FF00D1124EE5DD5
S11326D0F44F8081918128173907A8F28A2F99270E
S11326E008952F923F924F925F926F927F928F92B2
S11326F09F92AF92BF92CF92DF92EF92FF920F938D
S11327001F93CF93DF93CDB7DEB72B970FB6F89413
S1132710DEBF0FBECDBF89839A836B837C83EE2497
S1132720FF24E816F90608F01DC1309143063987E5
S113273020900001309001014985242F3327C901DD
S1132740E3E0880F991FEA95E1F7821B930B8E0D46
S11327509F1D880F991F880F991FDC01A059B74F3F
S11327602D913D914D915C912D833E834F835887EC
S11327703C01660C771C4AE55BE0640E751E82ED35
S11327809FEF680E791EF301008111812EE230E083
S1132790620E731EC801AA2797FDA095BA2FBC012B
S11327A0CD010E9408234B015C0117FF08C020E003
S11327B030E040E857E40E94A9224B015C0144ED5B
S11327C05FEF640E751EF30100811181C801AA2711
S11327D097FDA095BA2FBC01CD010E9408232B01BF
S11327E03C0117FF08C020E030E040E857E40E94B5
S11327F0A9222B013C0120E030E040E057E4C50170
S1132800B4010E941523181654F420E030E040E887
S113281057E4C501B4010E94A8224B015C0120E0E9
S113282030E040E057E4C301B2010E9415231816BA
S113283054F420E030E040E857E4C301B2010E94C0
S1132840A8222B013C010894E11CF11CEA86FB86BA
S11328502B813C81232BE1F5610153E0CC0CDD1C81
S11328605A95E1F74BE955E0C40ED51E2D813E8102
S11328704F815885C501B4010E947323DC01CB014B
S1132880F601E080F180028113819C01AD01C80151
S1132890B7010E94A822DC01CB01F6018083918359
S11328A0A283B3832D813E814F815885C301B20138
S11328B00E947323DC01CB01F601E480F5800681DC
S11328C017819C01AD01C801B7010E94A8223BC039
S11328D0610143E0CC0CDD1C4A95E1F72BE935E0BE
S11328E0C20ED31E2D813E814F815885C501B4018E
S11328F00E947323DC01CB01F601E080F1800281A8
S113290013819C01AD01C801B7010E94A922DC0119
S1132910CB01F60180839183A283B3832D813E8111
S11329204F815885C301B2010E947323DC01CB019E
S1132930F601E480F580068117819C01AD01C80190
S1132940B7010E94A922DC01CB01F601848395839F
S1132950A683B783EA84FB8429813A81E216F306CD
S113296008F4EACE2B960FB6F894DEBF0FBECDBFA7
S1132970DF91CF911F910F91FF90EF90DF90CF9057
S1132980BF90AF909F908F907F906F905F904F908B
S11329903F902F900895AC0120E030E028173907CC
S11329A008F560914306862F9927FC01B3E0EE0FEA
S11329B0FF1FBA95E1F7E81BF90BE20FF31FA3E041
S11329C0EE0FFF1FAA95E1F7E65AF44FBE97119256
S11329D0119211921192108211822F5F3F4F24178E
S11329E0350708F308958F929F92AF92BF92CF92CA
S11329F0DF92EF92FF920F931F93CF93DF93CDB7A4
S1132A00DEB72A970FB6F894DEBF0FBECDBF8AE0BB
S1132A104E010894811C911CF40111928A95E9F7E6
S1132A200091000110910101F801E00FF11FEF582E
S1132A30FA4F80914306282F3327808191812817EC
S1132A40390708F08AC088E390E0289FF001299FA5
S1132A50F00D389FF00D1124EE5DF44FA080B1808D
S1132A6023E0000F111F2A95E1F705561A4FF801CC
S1132A7080819181A281B381BC01CD010E94EB22AE
S1132A80DC01CB0189839A83F80184819581A68135
S1132A90B781BC01CD010E94EB22DC01CB018B8309
S1132AA09C83CC24DD24CA14DB04D8F5809143062E
S1132AB0282F3327F90193E0EE0FFF1F9A95E1F7D2
S1132AC0E21BF30BEC0DFD1D83E0EE0FFF1F8A9557
S1132AD0E1F7E65DF44F408151816091000170910E
S1132AE0010185E190E0689FF001699FF00D789FF6
S1132AF0F00D1124E40FF51FEE0FFF1FED5FFE4FE5
S1132B0003E0E02EF12C89019A0140815181CE012C
S1132B1001960E947B0D0894C11CD11CCA14DB04CD
S1132B2028F2AB2859F490914306809144069817F3
S1132B3028F49F5F909343060E94F3148091000150
S1132B409091010113E0E12EF12C00E010E09801D6
S1132B50A801BC01C4010E949A122A960FB6F894E7
S1132B60DEBF0FBECDBFDF91CF911F910F91FF90BC
S1132B70EF90DF90CF90BF90AF909F908F9008958B
S1132B8078941F920F920FB60F9211242F933F93B4
S1132B908F939F938FB7F894282F332780914A0CF3
S1132BA0882381F080913B0A8093050C8860809390
S1132BB03B0A8EBD80912C0D90912D0D9BBD8ABD3D
S1132BC010924A0C2FBF9F918F913F912F910F909C
S1132BD00FBE0F901F9018950F931F93CF93DF9301
S1132BE0EC018091A10C99278230910519F003978B
S1132BF091F174C08FB7F894082F112787B78F7D90
S1132C0087BF86B7806286BF80E00E94940786B73C
S1132C10846086BF8EB58F7E8EBD8EB5877F8EBD58
S1132C2087B7806287BF0FBF849907C087B78F7D3E
S1132C3087BF86B7806286BF03C083E08093A10C00
S1132C40E091970CF091980CC3A7D4A78091A10CA4
S1132C50833009F449C085E08093A10C87B78F7D48
S1132C6087BF86B7806286BF8FB7F894082F112775
S1132C7087B78F7D87BF86B7806286BF81E00E9459
S1132C80940786B7846086BF8EB58F7E8EBD8EB561
S1132C90877F8EBD87B7806287BF0FBF8091070C87
S1132CA0882399F0E091970CF091980C8681978194
S1132CB08F5F9F4F51F082E080930E0A6BE470E0C7
S1132CC080E090E00E94900A04C08EE592E10E94A8
S1132CD06B02882349F40E94831206C0E0915B0CC6
S1132CE0F0915C0CC3A7D4A706B601FE03C086B757
S1132CF0846086BFDF91CF911F910F9108957894DE
S1132D001F920F920FB60F9211242F933F934F935C
S1132D105F936F937F938F939F93AF93BF93EF933F
S1132D20FF938FB7F894282F33278091E4088823E2
S1132D3059F08091230D88608093230D85BD809187
S1132D404B0C83BD1092E4082FBF8FB7F8949927DA
S1132D504091120A5091130A8FBF4F3F510508F05A
S1132D6040C087B78F7787BF8FB7F89499271092A1
S1132D701D0D8FBF8FB7F89499272091A10C8FBF99
S1132D8080910E0A99278130910581F08230910556
S1132D901CF4892B21F03BC0029759F038C088E11C
S1132DA097E10E946B02882391F518C00E9478175E
S1132DB02EC0253061F58FB7F894282F3327E09182
S1132DC0970CF091980C12A686E08093A10C2FBF6B
S1132DD08EE592E10E946B028823C9F40E9483125B
S1132DE016C0452F55278FB7F894282F3327CA01CB
S1132DF0AA27BB278093120A9093130AA093140A5C
S1132E00B093150A2FBF64E0842F0E94B60AFF9185
S1132E10EF91BF91AF919F918F917F916F915F914E
S1132E204F913F912F910F900FBE0F901F901895C7
S1132E30CF9389E00E94FF06882309F455C090913E
S1132E40B8079F5F4091970C5091980C20E08FB782
S1132E50F894382F8091DC08882311F021E003C016
S1132E6081E08093DC083FBF2223B9F58FB7F89443
S1132E70382F2093180A90939F0C5093350A40934F
S1132E80340AC0988EE38FB9779BFECFCFB190E020
S1132E9020919F0C921778F4E091340AF091350A4E
S1132EA081918FB9F093350AE093340A779BFECF72
S1132EB09F5F921788F381E08093180A3FBFC09AFE
S1132EC085E69AE10E946B02282F882349F48FB784
S1132ED0F89499272093DC088FBF80E090E002C02B
S1132EE08C2F9927882311F40E948312CF9108957F
S1132EF00F931F938FB7F89499272091A10C8FBF3C
S1132F00243009F0A1C080E090E0B79981E0892BDA
S1132F1021F40E9902C00E949D11869B5BC08FB75D
S1132F20F894282F332782E08093A10C2FBF85E0EB
S1132F300E94FF0680E00E94FF068695869586958E
S1132F4080FF1BC08FB7F894082F112787B78F7D98
S1132F5087BF86B7806286BF81E00E94940786B7E8
S1132F60846086BF8EB58F7E8EBD8EB5877F8EBD05
S1132F7087B7806287BF0FBF67C08FB7F894282FC9
S1132F80332784E08093A10C2FBF0E94D90A8F734A
S1132F90907001969C0153E0220F331F5A95E1F77C
S1132FA0280F391F280F391F81E080930E0A21153D
S1132FB0310529F462E070E080E090E005C0C901C9
S1132FC0AA27BB27BC01CD010E94900A9927882318
S1132FD0D9F538C08091DD08982F81508093DD08A1
S1132FE0992361F40E949D1188E08093DD0888E1B3
S1132FF097E10E946B02882339F524C00E94D90A04
S11330008F73907001969C0143E0220F331F4A9501
S1133010E1F7280F391F280F391F81E080930E0A2A
S11330202115310529F462E070E080E090E005C0EC
S1133030C901AA27BB27BC01CD010E94900A992788
S1133040882311F40E9483121F910F9108958FBF5A
S113305008958FB7F894992708958F929F92AF920D
S1133060BF92CF92DF92EF92FF920F931F93CF9371
S1133070DF93CDB7DEB72A970FB6F894DEBF0FBE45
S1133080CDBF8AE0FE01319611928A95E9F7AA2410
S1133090BB24C0900001D090010185E190E0C89E5E
S11330A0F001C99EF00DD89EF00D1124EE0FFF1F04
S11330B0ED5FFE4F80809180860173E0000F111F49
S11330C07A95E1F705561A4FF80180819181A28122
S11330D0B381BC01CD010E94EB22DC01CB018983C9
S11330E09A83F80184819581A681B781BC01CD01C1
S11330F00E94EB22DC01CB018B839C838091E50849
S11331009091E6088D839E8364E0E62EF12C850180
S11331109501A401B601CE0101960E947B0D2A9669
S11331200FB6F894DEBF0FBECDBFDF91CF911F91D4
S11331300F91FF90EF90DF90CF90BF90AF909F9052
S11331408F9008950895CF93DF93CDB7DEB72A9774
S11331500FB6F894DEBF0FBECDBF8AE0FE013196F4
S113316011928A95E9F78091600C9091610C90938B
S11331704806809347062A960FB6F894DEBF0FBE22
S1133180CDBFDF91CF910895CF93DF93CDB7DEB755
S11331902A970FB6F894DEBF0FBECDBF8AE0FE01BA
S11331A0319611928A95E9F780910D0C90910E0C4D
S11331B090935307809352072A960FB6F894DEBF74
S11331C00FBECDBFDF91CF9108959F92AF92BF9272
S11331D0CF92DF92EF92FF920F931F93CF93DF93DF
S11331E081E080935E0C8FB7F8949927C090510CBE
S11331F0D090520C1092520C1092510C8FBF8091AF
S11332001F0D9091200DA091210DB091220D0097DA
S1133210A105B10509F495C09924C2E1DCE0AA2412
S1133220BB24E1E0EE2EF12C012D112D0A2C04C05B
S1133230EE0CFF1C001F111F0A94D2F780911F0D82
S11332409091200DA091210DB091220D8E219F21EE
S1133250A023B1230097A105B10509F469C0960123
S1133260442755278D819E81AF81B885821B930B9E
S1133270A40BB50B8D839E83AF83B8870397A105F9
S1133280B1050CF055C08DE69BE10E946B028823CA
S113329009F445C08881882389F48D819E81AF819A
S11332A0B88529813A814B815C81820F931FA41FC9
S11332B0B51F8D839E83AF83B8871AC0A801970179
S11332C0209530954095509580911F0D9091200D3B
S11332D0A091210DB091220D82239323A423B52321
S11332E080931F0D9093200DA093210DB093220D78
S11332F08091280D853019F48FEF8093280D9091DB
S1133300280D9F5F9093280D80911F0A8F5F8093F3
S11333101F0AE92FFF27E252F74F908209C08091DC
S11333208A0C9927AA27BB278D839E83AF83B887EE
S113333093940894A11CB11C299685E0891508F082
S113334070CF8FB7F8949927C090510CD090520C3D
S11333508FBFCD2811F40E946501DF91CF911F9199
S11333600F91FF90EF90DF90CF90BF90AF909F9020
S1133370089587B799278C7F009719F080E090E033
S11333801AC06F9918C0379B03C088E090E013C03F
S113339087B7992783709070892B59F081B792B7BA
S11333A0891B803118F48CE190E005C088E190E03D
S11333B002C080E190E0382F8093BC0725B7237EBC
S11333C08C3121F0883111F008C0000080B79927B2
S11333D087709070892BC9F7237E232B25BF85B76F
S11333E0806285BF08950F931F93CF93DF939091CD
S11333F0E80C86E0989F800111240557134FF801CB
S1133400C481D58182819381059760F12081822FC7
S113341099278134910559F08234910524F480343C
S1133420910501F119C08234910561F015C081E064
S113343089A7F80181818093890C8BE49AE10E9429
S11334406B0202C081E089A7CE010E94BF0FCE01AA
S11334500E943F10EC0106C02093EB0886EC9DE12E
S11334600E946B028FB7F894282F3327209719F006
S1133470F801C483D583F8011282138211828091EA
S1133480E80C8F5F81708093E80C2FBFDF91CF91A0
S11334901F910F9108952091890C31E08FB7F89412
S11334A090912F0D91FD06C0926090932F0D209363
S11334B0670C01C030E08FBF313011F40E94FC0A68
S11334C008950E94C111089508958FB7F89499271B
S11334D01092DC088FBF0E9478170895FF920F9313
S11334E01F93CF93DF93CDB7DEB722970FB6F8942F
S11334F0DEBF0FBECDBF00E010E08FB7F894992770
S1133500F0902E0D609186087091870810925D0CE2
S11335108FBF8FB7F89499272091A10C8FBFC80152
S1133520B79981E0892B11F40E9B6BC0FF2009F43D
S113353068C089E28F1508F464C070935C0C6093D2
S11335405B0C8091070C882309F444C0253009F0F2
S113355041C0FB0181819927877090700297D1F552
S113356093818091620C9817A9F5DB01AF0DB11D11
S1133570AD0141505040FA019081991F9927991F3C
S1133580913041F58FB7F894282F3327E091970CA9
S1133590F091980C92A7E091970CF091980C1297E7
S11335A08C9187A3E091970CF091980CDA018C919F
S11335B08F7780A786E08093A10C1092590B2FBFC0
S11335C08EE592E10E946B02882309F07AC00E9482
S11335D0831277C0E0915B0CF0915C0C8181992798
S11335E087709070019769F48281883051F48081EA
S11335F08B508083A0915B0CB0915C0C8C918E31CC
S113360048F00E949D118FB7F89499271092590B96
S11336108FBF57C016962D913C91179781E08983EF
S11336201A8240E050E089819A818130910509F441
S1133630AC01452B19F4032F122F01C089011696F2
S11336400D931C931797AB014F0D511D9A012150F7
S11336503040F9018081881F8827881F99968C93B0
S1133660A0915B0CB0915C0C42505040FA018081F7
S113367097968C93E0915B0CF0915C0CD9018C9142
S11336808F7780A78FB7F894082F112783ED9DE1DA
S11336900E946B02882311F48093590B0FBF80E0C2
S11336A090E0B79981E0892B11F40E9B08C00E9924
S11336B006C081E69AE10E946B02882311F40E94FD
S11336C09D1122960FB6F894DEBF0FBECDBFDF91D9
S11336D0CF911F910F91FF9008952F923F924F9297
S11336E05F926F927F928F929F92AF92BF92CF928E
S11336F0DF92EF92FF920F931F93CF93DF93CDB797
S1133700DEB72E970FB6F894DEBF0FBECDBF9091F3
S11337101F0A992319F486E090E015C08091BB0735
S1133720853019F48FEF8093BB078091BB078F5FBF
S11337308093BB07915090931F0AE82FFF27E25212
S1133740F74F80819927863008F0FAC1082F112796
S11337500230110509F4AAC10330110544F401151E
S1133760110591F00130110509F463C1E9C1043078
S1133770110509F4ABC1043011050CF49AC10530EC
S1133780110509F4B8C1DCC180915807909159071B
S113379022E08735920730F401969093590780937D
S11337A0580719C08091000190910101892B79F08B
S11337B08FB7F894282F332781E090E09093490C39
S11337C08093480C2FBF82EE97E00E946B02109307
S11337D0590700935807CC24DD24CD86DE86ADEE50
S11337E0EA2EA8E0FA2EF701A080B180F1E0AF162E
S11337F0B10409F07BC0F7012281338121503040AC
S1133800228333832115310509F070C0ED85FE85CF
S1133810EC0DFD1DE254F84F8081918189839A83D8
S1133820828193818B839C83848195818D839E8304
S1133830868197818F8398878085918589879A87E8
S1133840F7010480F581E02DEB87FC87F701868082
S113385097806084718442845384248435848901EC
S113386084E00E9407099093100A80930F0A00973E
S113387039F00A9690934F0C80934E0CC50101C009
S1133880C801882381F105301105B8F4E0914E0C8C
S1133890F0914F0C9801200F311FCE010196D901F0
S11338A0A80FB91FE20FF31F8D919D9181939193FE
S11338B00F5F1F4F05301105B8F3E0914E0CF091E6
S11338C04F0C82869386648675868B859C85868755
S11338D09787408A518A228A338A20E044E1B401DE
S11338E084E00E947A09F701108211820894C11CB5
S11338F0D11C8EE090E0E80EF91EED85FE85399628
S1133900ED87FE87F4E1CF16D10408F46CCF209143
S11339100001309101012115310509F011C1809197
S113392050079091510745E08B3D940708F43EC041
S1133930E5E08B3D9E07B1F5019690935107809386
S113394050070E94D70B882309F4FAC0209145063A
S1133950309146062150304079F0D901A20FB31FAF
S1133960AA5BB84FFD013297808191818D939C931E
S113397021503040DF01B1F780914607909147070D
S113398001969093470780934607E091570CF09176
S1133990580C809146078083E091570CF091580CA5
S11339A084E03EC0FBE0873B9F0730F40196909390
S11339B0510780935007C4C0309351072093500798
S11339C00E94D70B882309F4BBC02091450630918F
S11339D046062150304079F0D901A20FB31FAA5BEB
S11339E0B84FFD013297808191818D939C93215032
S11339F03040DF01B1F78091460790914707019667
S1133A009093470780934607E091570CF091580C28
S1133A10809146078083E091570CF091580C83E025
S1133A20818320E04BE06FEF7FEF88E00E947A090A
S1133A3087C080910C0A90910D0A8230910569F13A
S1133A408330910528F4009741F1019721F025C0B6
S1133A50039791F022C082E090E090930D0A809346
S1133A600C0A8FB7F894082F112781E00E94A00751
S1133A700FBF813091F464C084E090E090930D0A0C
S1133A8080930C0A8FB7F894082F112782E00E94C4
S1133A90A0070FBF813009F453C08FB7F89499275A
S1133AA01092A50C8FBF82EE97E03DC089EB9DE19B
S1133AB03AC080910B0C90910C0C9093EB0C80937A
S1133AC0EA0C10920C0C10920B0C3AC020E030E07F
S1133AD0B79921E08091070A9091880C891711F019
S1133AE0291771F12093070A21E030E040E050E00B
S1133AF061E084E023C080B39927F6E0969587952A
S1133B00FA95E1F7282F21708091380A90910F0CD3
S1133B10891761F0291751F460E070E08DE10E948B
S1133B20600688EF90E20E946B020AC02093380A74
S1133B3021E030E040E050E061E085E00E947D0655
S1133B402E960FB6F894DEBF0FBECDBFDF91CF9196
S1133B501F910F91FF90EF90DF90CF90BF90AF90A7
S1133B609F908F907F906F905F904F903F902F9099
S1133B7008950F931F938FB7F894082F11278AE0A5
S1133B800E94A0070FBF1F910F9108958FB7F8945B
S1133B90282F332780912F0D886080932F0D2FBFFE
S1133BA00E94FC0A08952F923F924F925F926F9267
S1133BB07F928F929F92AF92BF92CF92DF92EF92B9
S1133BC0FF920F931F93CF93DF93CDB7DEB769971F
S1133BD00FB6F894DEBF0FBECDBF8FB7F894992708
S1133BE0A0905B0CB0905C0C8FBF60E0C5010E949C
S1133BF02010882309F4D1C2F501808599278830E3
S1133C00910509F4B5C1893091050CF0C3C204973C
S1133C1009F0C0C25AE0C52ED12CCA0CDB1CF8EA4C
S1133C20AF16FCE0BF0639F42091680C3091690CA2
S1133C302D8B3E8B04C088EA9CE08D8B9E8BB092CA
S1133C40690CA092680CF60166847784A484B58418
S1133C5080889188228933892F8B388F42845384BA
S1133C608AE0FE01319611928A95E9F7198E222491
S1133C70332437E06316710471F489829A82EF88E1
S1133C80F88C84019501A201B30181E090E08C0FCE
S1133C909D1F0E949A12E0910001F0910101AE165D
S1133CA0BF0609F047C18F89988D049761F58FB7D6
S1133CB0F894082F112770925A0C6092590C909224
S1133CC01B0D80921A0DF6018081918190939E0CB8
S1133CD080939D0C8281938190931A0A8093190A90
S1133CE08481958190933A0A8093390A83E492E21D
S1133CF00E946B020FBFEF88F88C84019501A2012A
S1133D00B301C60114C18091430699278816990608
S1133D1009F0F2C0AA0CBB1C21E735E0A20EB31EC9
S1133D20F501808191818815990509F08EC0F6010D
S1133D302281338140815181B301C4010E94E01288
S1133D400E942E13813009F010C180914306282F60
S1133D50332788E390E0289FF001299FF00D389FD6
S1133D60F00D1124EE5DF44F2080318060E070E0AE
S1133D70C1010E947113C1010E94CB1421143104AA
S1133D8009F4F3C080914306A82EBB24F50143E057
S1133D90EE0FFF1F4A95E1F7EA19FB09298DE20F9F
S1133DA0F11D33E0EE0FFF1F3A95E1F7E65DF44FA6
S1133DB080809180C0900001D0900101860123E0B1
S1133DC0000F111F2A95E1F705561A4FF80180815B
S1133DD09181A281B381BC01CD010E94EB22DC015F
S1133DE0CB0189839A83F80184819581A681B78167
S1133DF0BC01CD010E94EB22DC01CB018B839C83AF
S1133E0085E190E0C89EF001C99EF00DD89EF00DAA
S1133E101124E80DF91DEE0FFF1FED5FFE4F93E037
S1133E20E92EF12C8501940140815181B601CE0126
S1133E3001960E947B0DF98DFF5FF98F8F2F9927D3
S1133E408215930508F49ECF90C0F6012281338138
S1133E5040815181B301C4010E94E0120E942E13DB
S1133E60813021F580914306282F332788E390E0A1
S1133E70289FF001299FF00D389FF00D1124EE5D6D
S1133E80F44F2080318061E070E0C1010E94711321
S1133E90C1010E94CB149091430680914406981767
S1133EA028F49F5F909343060E94F314009100014D
S1133EB01091010183E0000F111F8A95E1F7055667
S1133EC01A4FF80180819181A281B381BC01CD0197
S1133ED00E94EB22DC01CB0189839A83F80184815F
S1133EE09581A681B781BC01CD010E94EB22DC0142
S1133EF0CB018B839C8339C0F601228133814081BD
S1133F005181B301C4010E94E01287E090E08983EB
S1133F109A838091000190910101EF88F88C8101CE
S1133F209101A101BC0181E090E08C0F9D1F0E94D2
S1133F309A121BC085E190E0E89F9001E99F300D43
S1133F40F89F300D1124F901EA0DFB1DEE0FFF1F40
S1133F50ED5FFE4F40805180EF88F88C840195011D
S1133F60A201B301C6010E947B0D8D899E8913C1F4
S1133F708AE0FE01319611928A95E9F720E030E05B
S1133F80D901F5018285682F772767FD70958091A7
S1133F90000190910101892B09F4FCC04091450670
S1133FA0509146062417350770F4E6E4F7E0819152
S1133FB091918617970711F4A1E0B0E02F5F3F4F6E
S1133FC024173507A0F3AB2B09F0E4C02091450674
S1133FD0309146062150304079F0D901A20FB31F29
S1133FE0AA5BB84FFD013297808191818D939C9398
S1133FF021503040DF01B1F77093470760934607C3
S11340000E94D70B8823A9F1D5011A962091570C49
S11340103091580CF5018285F90180832091570C69
S11340203091580C11968C911197F901818320914C
S1134030570C3091580C12968D919C911397F9015D
S11340408283938314968C91F9018483E091570CB5
S1134050F091580C86E03596D5011F960D9001928B
S11340608A95E1F720E04BE06FEF7FEF88E00E9454
S11340707A098AE0DE011B96FD0111928A95E9F71F
S1134080F5013A9684818F5F848360910001709179
S11340900101628373838181992787FD9095833021
S11340A09105F1F08430910534F48130910531F0BB
S11340B0029749F06FC0049711F16CC084E090E05E
S11340C08B879C8702C01B861C8613E0E12EF12C93
S11340D000E010E09801A801CD010E949A125AC094
S11340E00E949E056EE187E00E9466058FB7F894F2
S11340F0082F112787E00E94A0070FBF4BC081E063
S1134100809343066B01B3E0CC0CDD1CBA95E1F758
S11341102BE935E0C20ED31EE0905207F09053070E
S1134120C701AA2797FDA095BA2FBC01CD010E9413
S11341300823F7FE06C020E030E040E857E40E9480
S1134140A922F601608371838283938300914706D9
S113415010914806C801AA2797FDA095BA2FBC0163
S1134160CD010E94082317FF06C020E030E040E89C
S113417057E40E94A922F60164837583868397839A
S1134180F0925507E092540710935707009356078F
S11341900E94F314C501DC0101C0D5018FB7F89466
S11341A09927109721F0B0935C0CA0935B0CE091DD
S11341B05B0CF0915C0C10821092590B8FBF6996C6
S11341C00FB6F894DEBF0FBECDBFDF91CF911F9124
S11341D00F91FF90EF90DF90CF90BF90AF909F90A2
S11341E08F907F906F905F904F903F902F900895A5
S11341F0FF920F931F93CF93DF93CDB7DEB724972E
S11342000FB6F894DEBF0FBECDBF80916C0C9091B9
S11342106D0CBC0180E10E94600680916E0C90914F
S11342206F0CBC0181E10E94600681E10E9472076B
S11342309C0180916E0C90916F0C2817390709F03E
S11342405EC08091700C9091710CBC0182E10E945F
S113425060068091720C9091730CBC0183E10E9402
S113426060068091740C9091750CBC0184E10E94ED
S113427060068091760C9091770CBC0185E10E94D8
S113428060068091780C9091790CBC0186E10E94C3
S1134290600680917A0C90917B0CBC0187E10E94AE
S11342A0600680917C0C90917D0CBC0188E10E9499
S11342B0600680917E0C90917F0CBC0189E10E9484
S11342C060068091800C9091810CBC018AE10E946F
S11342D060068091840C9091850CBC018CE10E9455
S11342E060068091860C9091870CBC018DE10E9440
S11342F0600689E00E94FF0688E00E94FF06209184
S11343000001309101012B833C83B90181E0898351
S11343101A8240E050E089819A818130910509F444
S1134320AC01452B19F4072F162F01C089010B830B
S11343301C8390E08091E20C882309F442C08FB77B
S1134340F894582F9093E20C8AE691E09093090C2C
S11343508093080C82E08093EC08CE01039690933E
S1134360A70C8093A60CC0988091080C80688FB924
S1134370779BFECF8FB18091080C9091090C969594
S11343808795807C8FB9779BFECF8FB190E0409169
S1134390EC08941770F42091A60C3091A70CF90145
S11343A0E90FF11D80818FB9779BFECF9F5F941732
S11343B0B0F35FBF81E08093E20C82E492E20E945A
S11343C06B0280917C0C90917D0C9D7F90937D0C71
S11343D080937C0CBC0188E10E94600686FF03C0C8
S11343E083E00E94FF068FB7F894282F332784E0D8
S11343F080935A072FBF8FB7F89499272091A10C67
S11344008FBF293099F583E00E94FF068FB7F89497
S1134410282F33278AB780628ABF8AB78F7E8ABFE4
S113442089B7806489BF2FBF61E0F62E8FB7F894F7
S1134430082F112787B78F7D87BF86B7806286BF15
S11344408F2D0E94940786B7846086BF8EB58F7EB9
S11344508EBD8EB5877F8EBD87B7806287BF0FBF45
S11344608FB7F8949927F092A10C8FBF24960FB6BA
S1134470F894DEBF0FBECDBFDF91CF911F910F9196
S1134480FF90089508950F931F9380919B0C082F1C
S11344901127000F111F0951174F8AE00E940709C5
S11344A0F801808391830097C1F08FB7F894282F87
S11344B0332780919B0CE82FFF27EE0FFF1FE95154
S11344C0F74F808191810A969093E40C8093E30CDA
S11344D01092530C2FBF81E090E08823B1F1E0915A
S11344E0E30CF091E40C80911A0D90911B0D8283E2
S11344F093838091590C90915A0C8083918380917D
S11345009D0C90919E0C848395838091190A9091BF
S11345101A0A868397838091390A90913A0A808790
S1134520918721E04AE06EE770E0842F0E947A09C7
S1134530882359F08FB7F894282F332780919B0C48
S113454091E0892780939B0C2FBF1F910F910895B1
S11345505058192EA6D001D08CC0BA176207730721
S113456084079507B1F188F40EF410940B2EBA2F3A
S1134570A02D062E622F202D072E732F302D082EEE
S1134580842F402D092E952F502DFF275523B9F048
S1134590591B49F0573E98F0469537952795A795AE
S11345A0F0405395C9F776F0BA0F621F731F841F4A
S11345B030F4879577956795B795F040939517FAFA
S11345C00F2E0895BF1BBB27BA0B620B730B840B12
S11345D0F6CFDEF682C097FB70D09F3738F0FEE945
S11345E0F91B982F872F762F6B2F05C073C09695D4
S11345F0879577956795F150D0F73EF4909580951F
S1134600709561957F4F8F4F9F4F0895E89403C035
S113461097FB0EF4F3DFB62F672F782F892F9EE9CF
S1134620002427C00ED05EF004C00BD026F001C0D9
S113463008D019F020F48FEF089580E0089581E008
S1134640089597FB092E052600F868942DD0E89468
S113465007FC07C0621773078407950721F008F465
S113466000940794989408959A95BB0F661F771F3A
S1134670881F11249923A1F08823B2F79F3F59F092
S1134680BB0F48F421F4002011F460FF04C06F5FF5
S11346907F4F8F4F9F4F881F9795879597F9089560
S11346A019C0052E092607FA440F551F5F3F79F0FC
S11346B0AA27A51708F051E04795880F991F9F3F37
S11346C031F0BB27B91708F091E0879508959F91C1
S11346D09F9157C066277727882799270895592FD0
S11346E0482F372F262FDDDF01D0C3CF992339F090
S11346F0552329F09F575F57950F13F4CAF1EDCF57
S113470091589F3FE1F3A62F00241124BB2766276D
S11347105527F8E0A69520F4020E131EB41F651F5A
S1134720220F331F441F551FFA95A1F7F8E0E72F16
S11347307727F8E0E69520F4130EB41F651F7A1F5F
S1134740330F441F551FAA1FFA95A1F7F82F882786
S1134750F69520F4B40F651F7A1F8E1F440F551F62
S1134760AA1FEE1FFF23A1F788231AF4939539F4A7
S113477008C0000C111CBB1F661F771F881F01286F
S113478008959FEF80EC0895991B79E004C0991F68
S1134790961708F0961B881F7A95C9F78095089597
S11347A0A1E21A2EAA1BBB1BFD010DC0AA1FBB1F31
S11347B0EE1FFF1FA217B307E407F50720F0A21BA3
S11347C0B30BE40BF50B661F771F881F991F1A9410
S11347D069F760957095809590959B01AC01BD013A
S10747E0CF01089564
S11347E401007DFFFF01000100010001000100013F
S11347F400010001000100010001000100010001A9
S1134804000100010001000100010001000000FF9B
S1134814FF0200030004000400040004000800086C
S11348240008000800080008000400040004000450
S11348340004000400040001000100FFFF03000160
S11348440001000100010001000100010001000158
S11348540001000100010001000100010001000148
S113486400020002000200FFFF0200020002000234
S11348740002000200020002000200020002000220
S11348840002000200020002000200010001000113
S1134894000100FFFF0500060006000100010001FD
S11348A400010001000100060006000600060006DF
S11348B4000600060001000100010001000100FFE0
S11348C4FF010001000100010001000100010001D9
S11348D400010001000100010001000100010004C5
S11348E40004000400040004000400FFFF070004A3
S11348F40004000400040004000400070007000787
S1134904000700070007000700060006000600066B
S113491400060006000600FFFF0600060006000667
S113492400060006000E000E000E000E000E000E1F
S1134934000E00010001000100010001000100015A
S1134944000100FFFF090009000900090009000132
S11349540001000100010001000100010008000839
S1134964000800080008000800080008000800FF08
S1134974FF0A000B000B000B0008000800080008E5
S113498400080008000800090009000900090009DA
S11349940009000900090009000900FFFF090009D2
S11349A400090009000900090009000900090009B7
S11349B400080008000800080008000800080008AF
S11349C400080008000800FFFF0C000C00080008A1
S11349D400080008000800080008000B000B000B86
S11349E4000B000B000B000B000B000B000B000B67
S11349F4000B00FFFF0D000B000B000B000B000B62
S1134A04000B000B000C000C000C000C000C000C40
S1134A14000C000C000C000C000C000C000C00FF3B
S1134A24FF0C000C000C000C000C000C000C000724
S1134A340007000700070007000700070007000736
S1134A440007000700070007000700FFFF0F000F1F
S1134A54000F000F000F000F000E000E000E000EDA
S1134A64000E000E000E000E000E000E000E000ECE
S1134A74000E000E000E00FFFF10001000100010C6
S1134A840010000F000F000F000F000F000F000FA5
S1134A94000F000F000F000F000F000F000F000F96
S1134AA4000F00FFFF11001100110011001000108D
S1134AB4001000100010001000100010001000106E
S1134AC4001000100010001000100010001000FF6F
S1134AD4FF12001200120011001100110011001144
S1134AE40011001100110011001100110011001136
S1134AF40011001100110011001100FFFF13001335
S1134B04001200120012001200120012001200120D
S1134B1400120012001200120012001200120012FD
S1134B2400120012001200FFFF14001300130013FC
S1134B3400130013001300130013001300130013D5
S1134B4400130013001300130013001300130013C5
S1134B54001300FFFF020000000000000002000038
S1134B640000000000040000000000000000000039
S1134B74000000000000000000000000000000002D
S1134B84000000000000000000000000000200001B
S1134B94000000000003000000000000000F0000FB
S1134BA400000000000000000000000000000000FD
S1134BB400000000000000000000000000000000ED
S1134BC400000000000000000000000000000000DD
S1134BD400000000000000000000000000000000CD
S1134BE400000000000000000000000000000000BD
S1134BF400000000000000000000000000000000AD
S1134C0440BDAA033EBDAA033E000000000000000C
S1134C14000000000000000000000000402442A343
S1134C243D8ACCFC3D0000000000000000000000B0
S1134C34000000000000000000000000000000006C
S1134C44000000000000000000000000000000005C
S1134C54000000640001000200010064000200037B
S1134C640001006400640002006400020003000206
S1134C740064006400640064006400000000000038
S1134C840000000000803F0000803F00000040005E
S1134C94000040000040400000404000008040000C
S1134CA40080400000A0400000A0400000C040007C
S1134CB400C0400000E0400000E04000000041006B
S1134CC40000410000104100001041000020410098
S1134CD40020410000304100003041000040410008
S1134CE40040410000504100005041000060410078
S1134CF400604100007041000070410000804100E8
S1134D040080410000884100008841000090410077
S1134D1400904100009841000098410000A0410027
S10D4D2400A0410103050001000195
S9030000FC
